:1000000000800020F5010000210200002102000014
:100010002102000021020000210200002102000054
:100020002102000021020000210200002102000044
:100030002102000020020000210200002102000035
:100040002102000021020000210200002102000024
:100050002102000021020000210200002102000014
:100060002102000021020000210200002102000004
:10007000210200002102000021020000C91B000033
:1000800021020000210200002102000021020000E4
:10009000210200008D1A0000210200002102000050
:1000A00021020000210200002102000021020000C4
:1000B00021020000210200002102000021020000B4
:1000C00021020000210200002102000021020000A4
:1000D0002102000021020000210200002102000094
:1000E0002102000021020000210200002102000084
:1000F0002102000021020000210200002102000074
:100100002102000021020000210200002102000063
:100110002102000021020000210200002102000053
:100120002102000021020000210200002102000043
:100130002102000021020000210200002102000033
:1001400010B5054C237833B9044B13B1044800E0D3
:1001500000BF0123237010BD7C00002000000000C0
:10016000542B000008B5034B1BB10349034800E0C2
:1001700000BF08BD0000000080000020542B0000DC
:10018000154B002B08BF134B9D46A3F5803A002169
:100190008B460F461348144A121A01F037FE0F4BD4
:1001A000002B00D098470E4B002B00D09847002022
:1001B000002104000D000D48002802D00C4800E08A
:1001C00000BF01F0FFFD2000290001F083FC01F0D9
:1001D000E5FD00BF000008000080002000000000D6
:1001E000000000007C000020E81400200000000057
:1001F00000000000064880470649074A074B9A421C
:10020000BEBF51F8040B42F8040BF8E7FFF7B8FF44
:1002100025020000602B0000000000207C00002070
:10022000FEE700BF044B054A9A60D3F8882042F4E9
:100230007002C3F88820704700ED00E00000000065
:10024000094B1B6F03F00703022B09D0032B04D0CB
:10025000012B00D0FEE705487047054B1868704732
:10026000044B1868704700BF00800040002D31012A
:1002700008000020040000200D4B1B6F03F0070353
:10028000022B12D0032B0DD0012B00D0FEE7094B1F
:100290000749094A086FC0F303300130B3FBF0F09F
:1002A00010607047054B1B68F2E7054B1B68EFE7D2
:1002B00000800040002D31010000002008000020D7
:1002C000040000200048704700B4C404014B1868C3
:1002D000704700BF08000020014B1868704700BF3E
:1002E000040000200020704700487047002D3101B5
:1002F0004FF40040704700BF4FF47A70704700BF62
:10030000014B1868704700BF0C0000204B1C012BEC
:1003100098BF70472DE9F003911C9B08B1F8048049
:10032000B1F802900A8831F802CC8044814402443A
:100330008444D9F80070D8F800601568DCF80040F3
:10034000C9F80060C8F80070CCF800501460D9F803
:100350000470D8F804605568DCF80440C9F80460FB
:10036000C8F80470CCF8045054600831013BD5D172
:10037000BDE8F00370474B1C012B98BF70472DE977
:10038000F003911C9B08B1F80480B1F802900A8830
:1003900031F802CC00EB580800EB590900EB52028F
:1003A00000EB5C0CD9F80070D8F800601568DCF838
:1003B0000040C9F80060C8F80070CCF80050146024
:1003C0000831013BDFD1BDE8F00370472DE9F04F64
:1003D0004D0881B0164600EB410748D00446BC46A4
:1003E000904628464FF0000EDFF89C90211F58F8E9
:1003F000043B51F8042F92FA2EFADCF8002092FA0E
:100400002EF2DAFA12FB9AFA22F20A6023FB0BF2BE
:1004100043FB1BF303EA090343EA124301384CF898
:10042000043BE4D1294602233246204600F0ECF892
:10043000384629463246022300F0E6F8204604EB0F
:10044000C505B0F90060B0F90240B0F90420B0F978
:1004500006307600640052005B0006804480828093
:10046000C38008308542ECD101B0BDE8F08F294649
:10047000022300F0C9F8324629463846022301B06B
:10048000BDE8F04F00F0C0B80000FFFF2DE9F04FCD
:100490004D0881B0164600EB410748D00446BC46E3
:1004A000904628464FF0000EDFF89C90211F58F828
:1004B000043B51F8042F92FA2EFADCF8002092FA4D
:1004C0002EF2DAFA12FB9AFA22F20A6043FB0BF2DE
:1004D00023FB1BF303EA090343EA124301384CF8F8
:1004E000043BE4D1294602233246204600F0B8F905
:1004F000384629463246022300F0B2F9204604EB82
:10050000C505B0F90060B0F90240B0F90420B0F9B7
:1005100006307600640052005B00068044808280D2
:10052000C38008308542ECD101B0BDE8F08F294688
:10053000022300F095F9324629463846022301B0DD
:10054000BDE8F04F00F08CB90000FFFF012A70B544
:100550000D4604461E46018824D0B1F5807F13D095
:1005600008D8202931D045D940290DD080292CD058
:100570008EB970BDB1F5806F06D023D9B1F5006F8B
:1005800023D0B1F5805FF3D101236268284600F0E3
:100590003BF8002EEDD02846A268A189BDE8704046
:1005A000FFF7E9BEB1F5807F1ED013D8202904D013
:1005B00027D9402918D08029DAD162682846FFF768
:1005C00065FFD5E7B1F5007FD2D162682846FFF715
:1005D000FDFECDE7B1F5806F06D00ED9B1F5006F05
:1005E000EBD0B1F5805FC3D101236268284600F0EB
:1005F00037F9BDE71029BBD1C6E7B1F5007FDCD0E4
:10060000B6E71029B4D1EFE72DE9F04F06460027F1
:100610008FB002910B9289080C909046104632469A
:100620008A463C468D002E44019303EB430306EBC0
:10063000050B9B00043DDFF824E25D440D91043E70
:10064000ABF1040B0393A2F1040C5CF8042F92FAB3
:1006500024F292FA24F25BF8043F93FA24F393FA1B
:1006600024F392FA13F1D2FA13F256F8043F93FAF4
:1006700024F393FA24F955F8043F93FA24F393FAF8
:1006800024F399FA13F391FA23F9CCF80090D1FAF4
:1006900013F350F8371021FB03F941FB13F33168D2
:1006A00091FA24F191FA24F103EA0E0343EA194383
:1006B00033602B6893FA24F393FA24F3D1FA13F1FD
:1006C000A2FA11F9E2FA11F250F8273023FB02F1F5
:1006D00043FB12F202EA0E0343EA1143CBF8003067
:1006E000D8F8003023FB09F243FB19F303EA0E03A9
:1006F00043EA1242019BBAF1010A1F44039B2A609C
:100700009844A2D1019B9B0008930D9B042B78D9A0
:10071000CDE9033ADFF844A100230C9A0693059231
:10072000039A0793930809939B000A9397000A99E9
:10073000059B079AC8180D184C190B9902EB420338
:1007400051F82390089B51F822E0D3180793029B9D
:1007500051F832801946069B059E994240D99C4625
:1007600033682A6893FA12FBD3FA12F301930268F2
:10077000216892FA11F29BFA22F3049993FA21F17B
:1007800031603E44DBFA22F228FB02F148FB12F210
:1007900002EA0A0242EA1142016802602268384411
:1007A000D1FA12F2019BA3FA22F1E3FA22F32EFB13
:1007B00003FB4EFB13F303EA0A0343EA1B432B60DC
:1007C0003D4429FB01F349FB11F101EA0A0141EA29
:1007D0001341039B21609C44029B3C446345BFD86A
:1007E000059A069B04320592099A01339A420693B0
:1007F0009DD113460392089A042B4FEA8202089275
:100800008AD80C9C0D9E103454F8103C54F8087C87
:1008100093FA17F154F80C2C54F8040C92FA10F5D2
:1008200091FA25F544F8105C92FA10F5D1FA25F109
:1008300044F80C1CD3FA17F3D2FA10F2E3FA22F1BF
:1008400044F8081CA3FA22F3013E44F8043C04F1E6
:100850001004D9D10FB0BDE8F08F00BF0000FFFF3A
:100860002DE9F04F064600278FB002910B928908C0
:100870000C909046104632468A463C468D002E44E7
:10088000019303EB430306EB050B9B00043DDFF8EC
:1008900024E25D440D91043EABF1040B0393A2F1FD
:1008A000040C5CF8042F92FA24F292FA24F25BF81A
:1008B000043F93FA24F393FA24F392FA13F1D2FA51
:1008C00013F256F8043F93FA24F393FA24F955F8F7
:1008D000043F93FA24F393FA24F399FA13F391FA69
:1008E00023F9CCF80090D1FA13F350F8371041FBFC
:1008F00003F921FB13F3316891FA24F191FA24F101
:1009000003EA0E0343EA194333602B6893FA24F396
:1009100093FA24F3D1FA13F1E2FA11F9A2FA11F2DF
:1009200050F8273043FB02F123FB12F202EA0E03D8
:1009300043EA1143CBF80030D8F8003043FB09F20A
:1009400023FB19F303EA0E0343EA1242019BBAF1B7
:10095000010A1F44039B2A609844A2D1019B9B007B
:1009600008930D9B042B78D9CDE9033ADFF844A115
:1009700000230C9A06930592039A07939308099310
:100980009B000A9397000A99059B079AC8180D18AF
:100990004C190B9902EB420351F82390089B51F834
:1009A00022E0D3180793029B51F832801946069B28
:1009B000059E994240D99C4633682A6893FA12FBF7
:1009C000D3FA12F301930268216892FA11F29BFAAA
:1009D00022F3049993FA21F131603E44DBFA22F2CA
:1009E00048FB02F128FB12F202EA0A0242EA114233
:1009F0000168026022683844D1FA12F2019BE3FADE
:100A000022F1A3FA22F34EFB03FB2EFB13F303EABE
:100A10000A0343EA1B432B603D4449FB01F329FBD6
:100A200011F101EA0A0141EA1341039B21609C4450
:100A3000029B3C446345BFD8059A069B043205924D
:100A4000099A01339A4206939DD113460392089A5C
:100A5000042B4FEA820208928AD80C9C0D9E103417
:100A600054F8103C54F8087C93FA17F154F80C2C05
:100A700054F8040C92FA10F591FA25F544F8105C3C
:100A800092FA10F5D1FA25F144F80C1CD3FA17F3B9
:100A9000D2FA10F2A3FA22F144F8081CE3FA22F386
:100AA000013E44F8043C04F11004D9D10FB0BDE874
:100AB000F08F00BF0000FFFF2DE9F04F930883B0D7
:100AC000009282468846019330D099460D4600F147
:100AD000100454F8100C20FB00F054F80C3C23FBDD
:100AE00003FB54F8087C27FB07F754F8046C26FB3B
:100AF00006F62946401400F02FF8A91C4FEA6B4077
:100B000000F02AF8291D781400F026F8A91D7014A9
:100B100000F022F8B9F1010904F1100405F108050B
:100B2000D7D1019B08EBC3080AEB031A009B13F013
:100B300003090ED008EB49095AF8040B20FB00F01A
:100B400008F1020341469846401400F005F8C845F4
:100B5000F2D103B0BDE8F08F00285EDDB0FA80F27C
:100B6000113A92B270B412F001041ABF02F1FF33CD
:100B70009840904000B207EE900AFAEEE87A17EE3D
:100B8000905A284B4610A3EB650307EE903AFEEE11
:100B9000C97A17EE903A1BB203FB03F5ED1315FB70
:100BA00006F5ED13C5F5405503FB05F343F34F334D
:100BB00023F0030303FB03F5ED1315FB06F5ED131B
:100BC000C5F5405503FB05F343F34F3323F003030F
:100BD00003FB03F5ED1315FB06F5ED13C5F54055C5
:100BE00003FB05F3DB139B0013FB00F343F38F338D
:100BF00023F001034CB170BC013A02EBD2725210E7
:100C000013411BB200200B80704742F34E02134188
:100C10001BB2002070BC0B80704700234FF0FF30E8
:100C20000B807047DF59375F38B5104B0546D3F856
:100C300020310C4603F00303022B12D0032B0CD0FF
:100C4000012B06D00023184605B1286004B123709B
:100C500038BDFFF741FB0523F6E7FFF745FB02230D
:100C6000F2E7FFF733FB0323EEE700BF008000400D
:100C7000002370B50F4A82B00193D2F88041064636
:100C800004F00304012C0D460DD0022C09D1FFF70E
:100C90002BFB01900EB1019B336005B12C7002B0AB
:100CA00070BD1C46F6E7194601A8FFF7BDFF0D24ED
:100CB000F0E700BF0080004038B5174B0546D3F879
:100CC00024310C4603F00703013B052B20D8DFE855
:100CD00003F00B0F13171B03FFF7F8FA042305B1FA
:100CE000286004B1237038BDFFF7F6FA0523F6E754
:100CF000FFF7ECFA0323F2E7FFF7F6FA0223EEE739
:100D0000FFF7F0FA0723EAE7FFF7E6FA0623E6E73C
:100D100000231846E3E700BF0080004038B5104BC1
:100D20000546D3F840310C4603F00303022B12D0E2
:100D3000032B0CD0012B06D00023184605B12860E8
:100D400004B1237038BDFFF7D3FA0923F6E7FFF7A4
:100D5000D3FA0A23F2E7FFF7D3FA0823EEE700BF3E
:100D60000080004038B5134B0546D3F800320C46DE
:100D700003F00703013B032B18D8DFE803F00F1340
:100D80000B02FFF779FA0C23800A05B1286004B141
:100D9000237038BDFFF7B0FA0A23F6E7FFF7A8FA89
:100DA0000923F2E7FFF7ACFA0823EEE70023184621
:100DB000EBE700BF0080004038B5104B0546D3F884
:100DC00040320C4603F00303022B12D0032B0CD04D
:100DD000012B06D00023184605B1286004B123700A
:100DE00038BDFFF785FA0923F6E7FFF785FA0A23EE
:100DF000F2E7FFF785FA0823EEE700BF0080004026
:100E000038B5104B0546D3F860310C4603F00303A8
:100E1000022B12D0032B0CD0012B06D00023184636
:100E200005B1286004B1237038BDFFF761FA0923CA
:100E3000F6E7FFF761FA0A23F2E7FFF761FA082302
:100E4000EEE700BF008000400B4BD3F8203203F0E8
:100E50000303012B0ED0022B0AD010B40A4608B1AE
:100E6000002303600AB1002313705DF8044B704740
:100E7000FFF754BFFFF7D8BE0080004030B441F206
:100E800068024FF4003541F671340D4B0D499D5009
:100E90001B6FCA69C3F3033303FB0000CC638B6889
:100EA000094923F440138842064988BF43F480135C
:100EB00002F480328B600AB10023CB6330BC7047F0
:100EC0000080004000000340005A6202430909D13B
:100ED00000F01F0019BB012203F5005302FA00F0D5
:100EE00018607047012B15D010B4104A104C00F058
:100EF0001F00022B14BF2346134641B903F50053CC
:100F0000012202FA00F018605DF8044B704703F507
:100F10008053F5E7074B00F01F000029DBD00122CA
:100F200003F5805302FA00F01860704768800040B3
:100F30006082004064800040002300B53E2883B0FA
:100F4000019353D018D9B0F5007F7CD027D9B0F5E4
:100F5000A06F45D02DD9B0F5D06F00F08A8069D947
:100F6000B0F5E06F42D0B0F5F06F2CD101A80021B0
:100F7000FFF746FF019819E02B2843D04DD93128BF
:100F800023D93C28F2D83A287ED2382828D03928CC
:100F900019D101A80021FFF78FFE019806E0522821
:100FA00042D06CD980287DD1FFF74AF903B05DF8B3
:100FB00004FBB0F5607F51D01ED9B0F5806F33D0FF
:100FC000B0F5906FE5D00020F0E72F285CD22D28F7
:100FD0004FD017D801A80021FFF7A0FE0198E5E740
:100FE00001A80021FFF730FF0198DFE701A80021E9
:100FF000FFF7E2FE0198D9E7B0F5207F44D0B0F5C5
:10100000407FE0D1FFF738F9344B1B6FC3F38023E7
:101010000133B0FBF3F04008C8E7232834D04BD9A4
:1010200029280AD828282FD201A80021FFF7FCFD83
:101030000198BBE7B0F5B06F30D101A80021FFF7F0
:1010400017FE0198B2E7FFF7FBF8244BD3F8903076
:10105000C3F304630133B0FBF3F0A7E7FFF7F0F845
:101060001E4BD3F88030C3F301130133B0FBF3F010
:101070009CE701A80021FFF775FE019896E74D282F
:1010800017D028D83F289ED1FFF7F6F8134B1B6FD7
:10109000C3F380230133B0FBF3F087E7B0F5C06FF3
:1010A00098D090E713D9B0F5807F93D0B0F5C07F8A
:1010B00089D1FFF7E1F879E72028FAD004D921286F
:1010C000E2D02228F5D07EE70028F2D07BE7603816
:1010D0000128EED977E74F28EBD274E70080004073
:1010E00008B54FF4C070FFF727FF064B064A984239
:1010F0008CBF4FF480600020136F23F4806318438B
:10110000106708BD80F0FA0200800040002917DD5A
:1011100010B441F268014FF4003441F67130094ACD
:10112000094B5450126FD969D8639A6822F440125F
:101130009A60CA0301D50022DA635DF8044B704758
:10114000FFF79CBE0080004000000340B0F5807FA8
:1011500000F0998022D9B0F5C06F00F0948038D9A2
:10116000B0F5F06F00F0CD804FD9B0F5006F78D0BA
:10117000B0F5086F40F045810339C9B205298CBF2D
:101180000021A04BA04A98BF53F82110D2F800319B
:1011900023F003030B43C2F8003170472D2800F001
:1011A0009E8040F282803D2800F0AB8046D93E28E8
:1011B00032D0802840F024818B1E70B5052B00F2C0
:1011C0001681DFE813F00A01FA001401B4001401DB
:1011D0000D01B0F5906F44D040F2A580B0F5A06F3E
:1011E0002FD0B0F5B06F40F0FE80022904D0A1F1FD
:1011F0000D01B1FA81F14909834AD2F8803123F017
:1012000003031943C2F880117047B0F5D06F66D060
:10121000B0F5E06F40F0E9800839C9B202298CBF0F
:1012200000217A4B784A98BF53F82110D2F8403207
:1012300023F003030B43C2F840327047382840F0D4
:10124000D3800D2900F0DA800E290CBF0221002185
:101250006D4AD2F8203223F003030B43C2F8203248
:1012600070470239C9B205298CBF0021684B664A14
:1012700098BF53F82110D2F8243123F007030B4311
:10128000C2F8243170470839C9B202298CBF002145
:10129000604B5D4A98BF53F82110D2F8403123F0DB
:1012A00003030B43C2F8403170472A289DD000F257
:1012B000A1802438032800F299800239C9B2032999
:1012C0008CBF0021544B504A98BF53F82110D2F8DC
:1012D000203123F003030B43C2F820317047083953
:1012E000C9B204298CBF00214C4B474A98BF53F820
:1012F0002110D2F8003223F007030B43C2F800326A
:1013000070470839C9B202298CBF0021444B3E4ABC
:1013100098BF53F82110D2F8603123F003030B4338
:10132000C2F860317047B0F5806FC6D070470026B4
:10133000022502200C46012100F088F8FEF7C2FFCA
:10134000FFF79CFD41F270024FF480302E4B196F75
:1013500041F48061196798501A6F22F007022A43FE
:101360001A67FEF789FF2F4A156815F01005FBD1A3
:101370004FF04023D3F88410C1F38111C1F1020171
:10138000FFF7C4FE2846012100F0B2F8FFF7A8FEDF
:101390008020FFF7D1FD244B984205D842F270031C
:1013A0004FF48031184AD15036B9032C04D142F29F
:1013B000280301211D4AD15070BD4FF4002641F28F
:1013C000640441F2280201200F4D184B2E519E6AF1
:1013D00003259850C6F34006ABE700260125A8E791
:1013E00000260425A5E77047704770477047002620
:1013F00035469EE72C283FF446AF7047012127E78A
:1014000070477047B82A000000800040802A000022
:101410008C2A0000802A0000702A0000A42A000004
:10142000802A000084400040005A620200C0004050
:10143000EFF3108072B6704700B962B6704700BF14
:10144000EFF3108072B67047FFF7F6BFF8B5274A82
:101450001368D906FCD44FF04024D4F88430C3F389
:101460008113984228D005464FF48066FEF7E8FEC7
:101470006B1E012D074606FA03F624D0FFF7D8FFAE
:101480002667D4F884300146DE0610D5D4F88430BF
:101490009C060CD44FF0402303E0D3F8842092063E
:1014A00005D4D3F88420D3F88420D006F5D4084698
:1014B000FFF7C2FF022D00D0F8BD3846BDE8F84066
:1014C0000021FFF723BE2946FFF720FEFFF7B0FFFC
:1014D0002667D4F884300146DB0603D5D4F884307F
:1014E0009B06D7D5BDE8F840FFF7A6BF8440004073
:1014F00040B1104B1B7813B10F4B984214D9022006
:10150000FFF7A4BF00B583B00191FEF799FE094B28
:1015100001991B7813B1084B984208D9022003B0F7
:101520005DF804EBFFF792BF0120FFF78FBF0120AA
:10153000F5E700BF98000020005A6202F0B4A2BB99
:10154000440025182D0107294FF00F0C05F18045A7
:101550001BD805F570356E688F000CFA07FC26EA7B
:101560000C0602FA07F73E436E6062B9012202FAE6
:1015700001F15BBB42F210030444240104F18044F6
:1015800004F57034E150F0BC704701F1804605F578
:101590007035083EEF68B6000CFA06FC27EA0C0727
:1015A00002FA06F63E43EE60DFE701268E4053B9AD
:1015B00042F21007440025182D0105F1804505F57C
:1015C0007035EE51BDE741F21007F3E741F2100329
:1015D000D2E700BFF8B5012104462020FFF776FCD2
:1015E00001212120FFF772FC012200204FF400119D
:1015F0004FF0FF0C4FF0004742F250054FF0FF361E
:101600000D4B5A60227812069A6094F801E0A27895
:1016100042EA0E429A61094AC3F828C098631864E6
:101620005F655E51C2F88011E3781B01DBB282F87E
:1016300015331160F8BD00BF0000044000E100E078
:10164000F8B50C464FF0010E42F25007CB7A897A7A
:10165000267B1B05256843EA01431E4943EA46539E
:101660001D4E94F80DC041F8205000EB4001C0B26F
:1016700006EB011122F003020EFA00F5C1F860C07A
:10168000CB650A67F551FFF7DBFE736D227A2B43BA
:10169000736512B1336C2B433364637A1BB10E4A0A
:1016A000936B2B43936342F2180141F2180623799E
:1016B000A27942EA0342084B5A506779E279074916
:1016C00042EA07429A510D609D64BDE8F840FFF779
:1016D000BBBE00BF00400440000004403420044072
:1016E00070B5054616461C46E9B1202C22D023D9F8
:1016F000402C16D0602C13D1042206FB02F35A08AA
:1017000002EB4112B2FBF3F2AB680D4923F0600328
:10171000AB60AB68203A01EAC2021C43AC60EA61EC
:1017200070BD0622E9E74FF42070FFF705FC202C7E
:101730000146DCD10822E0E7002CF1D11022DCE7E1
:10174000F8FF7F000122CB4310B441F20404934020
:1017500003F00A0302514361416111B942F20403EB
:10176000C2505DF8044B7047F8B540F6AA620446D3
:1017700041F204074FF0010C002341F2050642F24A
:10178000480044F807C06261494A0D4649499442FD
:10179000A360E365E6602361E361E3642150A36530
:1017A0005DD002F58042944259D0012342F20400F8
:1017B00041F20401AA7C235063501AB1A36843F09C
:1017C0008043A360EB7C73B1394B2A7D9C4267D088
:1017D000394B9C4204BFA3F52033C3F89C21E36D31
:1017E00043F08003E365298A6B7BEA890B4313434B
:1017F000E360D5E901122B7B2046FFF771FF6B7D7B
:101800001BB1A36843F48033A360AB7DEA7D297EDE
:101810001B07120502F4E00203F0E04313438A1EA3
:10182000012AA365224B1ED99C4237D003F5804381
:101830009C4214BF4FF0FF33012342F21C6202208E
:101840005B0103F1804303F57033012998501ED1E9
:1018500041F25C030422E2502B786361F8BD2365FA
:1018600000236365A1E79C421FD003F580439C429F
:1018700014BF4FF0FF33012341F21C6202205B01D1
:1018800003F1804303F5703303299850E0D042F20E
:101890005C030422E2502B786361F8BD0023CCE79F
:1018A000A3F51033C3F88C2199E70023E4E700BFC8
:1018B00000C00540FFFF01000000064083691B06D1
:1018C000FCD5406AC0B2704783695B06FCD5C16332
:1018D000704700BF00207047FEE700BF4FF4005381
:1018E00000204B60704700BF0020704770B57AB190
:1018F0000D461646002404E00134A64205F8010B0B
:1019000004D000F0F3F9431CF6D10CB1204670BDB1
:101910004FF0FF34FAE700BF044A05491368002B73
:1019200008BF0B4618441060184670479C00002002
:10193000E814002070B5161E07DD0C468D1914F84A
:10194000010B00F007FAA542F9D1304670BD00BF87
:1019500070B501213A20FFF7B9FA01213920FFF7CC
:10196000B5FA05213920FFF7F1FB002101230846D4
:101970000422FFF7E3FD0023042206210220FFF7E3
:10198000DDFD01240023012207210220FFF7D6FDFF
:10199000114A05251146114B114E186E40F070107A
:1019A0001866C3F820450F48C3F824650E4EC3F8E7
:1019B0002805C3F82C055661956154600B6E002B09
:1019C000FCD10123044ACB60136E002BFCD142F200
:1019D0001103936070BD00BF0080094000C0034048
:1019E0000200060002000700133101024FF0000060
:1019F0004FF003022DE9F0470226FF270146134668
:101A00004FF0130900256FF00C0E4FF4702C4FF0BF
:101A1000100A184C66F38302E270174A67F30E113E
:101A200066F38303E3742182144B1168144A86B071
:101A300067F30E10C4E90239A261124B124A2080EA
:101A400001A884F812A0C4F81CE0019163606361EE
:101A50001570CDF808C084F802A00395CDE90455AF
:101A6000FFF7B8FD2246284602A9FFF7E9FD06B0B8
:101A7000BDE8F087C0000020D02A0000E010002060
:101A8000E00C002020800940E014002042F25001C8
:101A9000054A136D002B535005DB044A137883F07D
:101AA000010313707047FEE700000440E0140020BB
:101AB00070B504460E460825304600F04BF9013D4E
:101AC000FAD104F5807514F8010B00F043F9A54232
:101AD000F9D170BD2DE9F8432F4B1B68C3F30743C1
:101AE000012B10D12D4B4FF48022596E41F2640529
:101AF00049034FF0040458BF42F2640128485A5188
:101B0000046058BF5A50FFF771FFFFF721FF012310
:101B1000042205210020FFF711FD00F089F80020C4
:101B200000F07CF81F4C204F204D214EDFF89490A0
:101B3000A4F58068336923F00403336130BF00F0FB
:101B4000D5F83B78F3B14FF0000C1A4A1A4B52F813
:101B5000041FA3F802C019800433A342F7D140B296
:101B60000028E7DD0123414648460022FEF7EEFC4F
:101B7000404680221149FEF79FFF7F210F48FFF763
:101B800097FFD7E70E4A0C4B52F8041F0433AA42C2
:101B9000A3F8FC13F8D1CDE70080E00F00800040EF
:101BA00020200140E0080020E0140020DC1000208C
:101BB00000ED00E0DC100020E0040020E000002048
:101BC000DC0C0020602A0000104883691B0609D540
:101BD00070B50F4C2368072B05DDC36C23F004039D
:101BE000C36470BD70470B4D2E68FFF767FE0A4B4C
:101BF00098552B6801332B602368013323602B68D1
:101C0000082BEED100232B6070BD00BF0000064002
:101C1000AC000020B4000020A400002010B9034B49
:101C2000187070470122014B1A707047A000002005
:101C3000F0B5012189B03A20FFF748F9254D01237D
:101C4000042205210020FFF779FC01AC01230222C8
:101C500006210020FFF772FC0FCD0FC495E80700A6
:101C6000002584E807001C4C01212920FFF72EF9EC
:101C700008A901F81C5D2046FFF776FD4FF4A02768
:101C80004FF0140C4FF4C0234FF4004642F24801C9
:101C90000420124AC2F83CC6C2F85476C2F84C3648
:101CA0000F4B6050C3F88061E26C204642F00402A2
:101CB000E26405211E60FFF745FD0A4A2B461268C3
:101CC00029469068022200F0A9F80122064B1A70FA
:101CD00009B0F0BDD42A00000000064000C0034057
:101CE00000E100E010000020A1000020144B10B51E
:101CF0001B78F3B1FFF7A4FB124A1368002B1BDD1E
:101D0000114B124C1968645C1968E4B20131196016
:101D10001968082904BF0021196013680C49013BA8
:101D20001360CB6C43F00403CB64FFF78DFB2046BC
:101D300010BDFFF77DFFDDE74FF0FF34F5E700BF93
:101D4000A1000020AC000020B0000020A400002072
:101D5000000006400E4B10B51B78044653B10D4BE6
:101D60001B780BB10A2C08D021460B48FFF7ACFDBD
:101D7000204610BDFFF75CFFF1E70D210648FFF795
:101D8000A3FD21460448FFF79FFD204610BD00BF7C
:101D9000A1000020A00000200000064008B5074B6D
:101DA000044613B1002100E000BF054B1868836AA8
:101DB00003B198472046FFF78FFD00BF00000000E9
:101DC000F02A000070B50D4E00250D4CA41BA41088
:101DD000A54209D10B4E00250B4C00F0C5FBA41BFE
:101DE000A410A54205D170BD56F82530013598479D
:101DF000EEE756F8253001359847F2E774000020E9
:101E00007400002074000020780000200244034683
:101E1000934200D1704703F8011BF9E72DE9F7431E
:101E20001D46504B04460F461E68904626B1B369C6
:101E300013B9304600F08CF94B4B9C4252D1746878
:101E4000B8F1020F06D0B8F1010F00F28880002D22
:101E5000C0F285802146304600F010F9616B41B137
:101E600004F14403994202D0304600F027FA0023DF
:101E700063630023A3616360A3891B0603D5216903
:101E8000304600F01BFAA389B8F1020F23F44A632D
:101E900023F00303A3815CD001AB6A4621463046A0
:101EA00000F0E0F9A3891843A0812DBB009D2846CE
:101EB00000F0FCF9074600284DD1DDF80090A94557
:101EC0003BD14FF0FF30A38943F00203A3810023ED
:101ED000A36004F14703236023610123636103B01E
:101EE000BDE8F083214B9C4201D1B468A8E7204BA8
:101EF0009C4208BFF468A3E7002FD8D0B36913B998
:101F0000304600F025F9B8F1010F276002BFA38920
:101F100043F00103A381A38913F00800C4E9047509
:101F20001BD013F001004FF000031DBF6D42A360F2
:101F30001846A56018BFA561D1E7484600F0B6F97C
:101F400007460028BDD0A3894D4643F08003A381F6
:101F5000D4E70020B7E7A946F5E7A060BFE74FF058
:101F6000FF30BCE710000020142B0000342B0000D1
:101F7000F42A00008A892DE9F041054610070C4635
:101F800058D44B68002B05DC0B6C002B02DC0020C6
:101F9000BDE8F081E66A002EF9D0002312F48052E9
:101FA0002F68216A2B6032D0606DA3895A0705D54E
:101FB0006368C01A636B0BB1236CC01A002302461E
:101FC000E66A2846216AB047431CA38906D12968DE
:101FD0001D2947D8284ACA40D60743D50022D9042C
:101FE00062602269226004D5421C01D12B6803B9CA
:101FF0006065616B2F600029C9D004F144039942E8
:1020000002D0284600F05AF900206063C0E701239F
:102010002846B047411CC8D12B68002BC5D01D2BCA
:1020200001D0162B01D12F60B1E7A38943F0400303
:10203000A381ADE70F69002FA9D093070E680F6049
:102040000CBF4B690023A6EB07088B60B8F1000FAB
:102050009DDD43463A46216A2846A66AB0470028D5
:1020600006DCA38943F040034FF0FF30A3818FE7E4
:102070000744A8EB0008E9E70100402038B50B69E8
:1020800005460C46DBB118B183690BB900F060F866
:102090000C4B9C4209D16C68B4F90C307BB12146E1
:1020A0002846BDE83840FFF765BF074B9C4201D189
:1020B000AC68F1E7054B9C4208BFEC68ECE70020F8
:1020C00038BD00BF142B0000342B0000F42A0000A0
:1020D000002310B504468360818119464366C2819E
:1020E00008228361C0E90033C0E904335C30FFF7A4
:1020F0008DFE054B24626362044BA362044BE362D2
:10210000044B236310BD00BF2D2400004F240000AA
:1021100087240000AB240000014900F085B800BF0F
:102120007D20000070B54A1E68250E46554305F116
:10213000740100F011F9044640B1002105F1680274
:10214000C0E900160C30A060FFF760FE204670BDAD
:10215000836910B5044633BB0365134AC0E91233E3
:10216000124B82621B68984204BF0123836100F016
:102170001FF86060204600F01BF8A060204600F0C9
:1021800017F80022E06004216068FFF7A1FF012238
:102190000921A068FFF79CFF02221221E068FFF7E7
:1021A00097FF0123A36110BD19210000F02A000050
:1021B000F8B51B4B07461E68B36913B93046FFF7E5
:1021C000C7FF4836D6E90134013B03D5336833B144
:1021D0003668F7E7B4F90C506DB16834F4E70421C0
:1021E0003846FFF79FFF30600028F1D10C230446EA
:1021F0003B602046F8BD0B4B082265662946A5606A
:1022000004F15C00C4E90055C4E90335C4E905558F
:10221000FFF7FCFDC4E90D55C4E91255E9E700BF1D
:10222000F02A00000100FFFF2DE9F84380468946AF
:1022300000F14804002614B93046BDE8F883D4E91B
:102240000175013F01D52468F5E7AB89012B07D95A
:10225000B5F90E30013303D029464046C84706433E
:102260006835EEE770B50E46B1F90E1096B014461B
:1022700000291D4607DA00232B60B3891A0610D403
:102280004FF480630EE06A4600F036F90028F2DB76
:10229000019A02F47042A2F500535A425A412A6050
:1022A000EEE740230020236016B070BD024B0146CC
:1022B000186800F051B800BF1000002038B505467E
:1022C000002945D051F8043C0C1F002BB8BFE4187E
:1022D00000F036F91F4A1368104633B96360146082
:1022E0002846BDE8384000F02CB9A3420CD921683B
:1022F0006218934202BF1A685B685218636008BF95
:1023000022600460ECE713465A680AB1A242FAD987
:1023100019685818A0420BD1206801445818196058
:102320008242DDD11068526801445A601960D7E7D3
:1023300002D90C232B60D3E7206821188A4202BF00
:10234000116852680918626008BF21605C60C7E7C5
:1023500038BD00BFB800002070B5CD1C064625F082
:10236000030508350C2D38BF0C25002D01DBA942D3
:1023700003D90C233360002070BD00F0E1F8214A3E
:102380001468214691B9204C23681BB9304600F0EF
:102390003DF820602946304600F038F8431C24D12F
:1023A0000C233046336000F0CCF8E4E70B685B1B8D
:1023B00018D40B2B0FD9CC180B60CD50304600F041
:1023C000C0F804F10B00231D20F00700C31AD3D07E
:1023D0005A42E250D0E78C424B681ABF63600C4609
:1023E0001360EBE70C464968CCE7C41C24F00304F7
:1023F000A04205D0211A304600F008F80130CFD0B5
:102400002560DBE7B8000020BC00002038B50023C1
:10241000054C054608462360FFF77EFA431C02D1AF
:10242000236803B12B6038BDE414002010B50C46BE
:10243000B1F90E1000F086F80028ABBF636DA389D8
:102440001B1823F48053ACBF6365A38110BD2DE935
:10245000F0411F468B8905460C46DB05164605D51F
:1024600002230022B1F90E1000F058F8A389324679
:10247000B4F90E10284623F48053A3813B46BDE8EF
:10248000F04100F017B810B50C46B1F90E1000F08D
:1024900045F8431CA38915BF606523F4805343F4BA
:1024A0008053A38118BFA38110BDB1F90E1000F0B5
:1024B00013B8000038B50546064C08461146002200
:1024C00022601A46FFF736FA431C02D1236803B193
:1024D0002B6038BDE414002038B50023054C0546B8
:1024E00008462360FFF7F6F9431C02D1236803B1C5
:1024F0002B6038BDE414002038B50023064C054697
:10250000084611462360FFF7E9F9431C02D123680E
:1025100003B12B6038BD00BFE414002038B5054678
:10252000064C08461146002222601A46FFF7DCF9E5
:10253000431C02D1236803B12B6038BDE414002092
:102540007047704738B50546064C084611460022CC
:1025500022601A46FFF7CAF9431C02D1236803B16F
:102560002B6038BDE4140020F8B500BFF8BC08BCEF
:102570009E467047F8B500BFF8BC08BC9E46704741
:1025800008000004100000021800000620000001EE
:1025900028000005300000033800000740008000DC
:1025A00048008004500080025800800660008001CE
:1025B0006800800570008003780080078800400470
:1025C0009000400298004006A0004001A80040058D
:1025D000B0004003B8004007C800C004D000C002EB
:1025E000D800C006E000C001E800C005F000C0034C
:1025F000F800C0070801200410012002180120067D
:102600002801200530012003380120074801A004DB
:102610005001A0025801A0066001A0016801A005B8
:102620007001A0037801A007880160049001600296
:1026300098016006A8016005B0016003B801600759
:10264000C801E004D001E002D801E006E801E0059D
:10265000F001E003F801E007080210041802100678
:1026600028021005300210033802100748029004B7
:102670005002900258029006680290057002900382
:10268000780290078802500498025006A80250056C
:10269000B0025003B8025007C802D004D802D006D6
:1026A000E802D005F002D003F802D0070803300496
:1026B0001803300628033005380330074803B004F8
:1026C0005803B0066803B0057003B0037803B00781
:1026D0008803700498037006A8037005B803700798
:1026E000C803F004D803F006E803F005F803F00788
:1026F0001804080628040805380408074804880454
:1027000058048806680488057804880798044806F1
:10271000A8044805B8044807D804C806E804C80552
:10272000F804C80718052806380528075805A8061C
:102730006805A8057805A80798056806B80568071C
:10274000D805E806F805E807380618075806980679
:1027500078069807B8065807F806D8077807B80724
:10276000FF7F0000F67F2403D87F4706A77F6A0912
:10277000627F8B0C097FAB0F9D7EC8121D7EE21518
:102780008A7DF818E37C0B1C297C191F5D7B2322B2
:102790007D7A28258A79262884781F2B6C77112E3C
:1027A0004176FB300475DE33B573BA3655728C3919
:1027B000E270563C5F6F173FCA6DCE41246C7A447D
:1027C0006D6A1C47A668B449CF663F4CE864BF4EAB
:1027D000F2623351EC609B53D75EF555B45C4258BE
:1027E000825A825A4258B45CF555D75E9B53EC60CE
:1027F0003351F262BF4EE8643F4CCF66B449A668DD
:102800001C476D6A7A44246CCE41CA6D173F5F6FD6
:10281000563CE2708C395572BA36B573DE330475A6
:10282000FB304176112E6C771F2B847826288A790D
:1028300028257D7A23225D7B191F297C0B1CE37CD4
:10284000F8188A7DE2151D7EC8129D7EAB0F097FA8
:102850008B0C627F6A09A77F4706D87F2403F67F27
:102860000000FF7FDBFCF67FB8F9D87F95F6A77FE5
:1028700074F3627F54F0097F37ED9D7E1DEA1D7E63
:1028800007E78A7DF4E3E37CE6E0297CDCDD5D7B21
:10289000D7DA7D7AD9D78A79E0D48478EED16C778B
:1028A00004CF417621CC047545C9B57373C6557202
:1028B000A9C3E270E8C05F6F31BECA6D85BB246CEE
:1028C000E3B86D6A4BB6A668C0B3CF6640B1E864A2
:1028D000CCAEF26264ACEC600AAAD75EBDA7B45C71
:1028E0007DA5825A4BA3425828A1F555139F9B53AF
:1028F0000D9D3351179BBF4E30993F4C5997B449AA
:1029000092951C47DB937A443592CE41A090173FB5
:102910001D8F563CAA8D8C394A8CBA36FB8ADE3321
:10292000BE89FB309388112E7B871F2B7586262846
:1029300082852825A2842322D683191F1C830B1C81
:102940007582F818E281E2156281C812F680AB0F39
:102950009D808B0C58806A092780470609802403D4
:10296000008000000980DBFC2780B8F9588095F6CC
:102970009D8074F3F68054F0628137EDE2811DEAA8
:10298000758207E71C83F4E3D683E6E0A284DCDDEE
:102990008285D7DA7586D9D77B87E0D49388EED144
:1029A000BE8904CFFB8A21CC4A8C45C9AA8D73C647
:1029B0001D8FA9C3A090E8C0359231BEDB9385BBC3
:1029C0009295E3B859974BB63099C0B3179B40B175
:1029D0000D9DCCAE139F64AC28A10AAA4BA3BDA742
:1029E0007DA57DA5BDA74BA30AAA28A164AC139F12
:1029F000CCAE0D9D40B1179BC0B330994BB65997E3
:102A0000E3B8929585BBDB9331BE3592E8C0A090C8
:102A1000A9C31D8F73C6AA8D45C94A8C21CCFB8AD8
:102A200004CFBE89EED19388E0D47B87D9D7758651
:102A3000D7DA8285DCDDA284E6E0D683F4E31C836A
:102A400007E775821DEAE28137ED628154F0F68076
:102A500074F39D8095F65880B8F92780DBFC0980D7
:102A6000000100006027000080250000F000000049
:102A70000300000002000000000000000100000050
:102A8000020000000100000003000000030000003D
:102A90000200000006000000010000000500000028
:102AA000040000000200000001000000030000001C
:102AB0000000000004000000010000000000000011
:102AC0000000000000000000030000000200000001
:102AD0001E000003050000000000000000C201000D
:102AE00000050000001000000000000000000000D1
:102AF00014000020000000000000000000000000A2
:102B000000000000000000000000000000000000C5
:102B100000000000000000000000000000000000B5
:102B200000000000000000000000000000000000A5
:102B30000000000000000000000000000000000095
:102B40000000000000000000000000000000000085
:082B500000000000000000007D
:082B580028D6FF7F01000000F8
:102B6000C0EA2101C0EA210100F049020080000012
:102B70001400002000000000142B0000342B000083
:102B8000F42A000000000000000000000000000027
:102B90000000000000000000000000000000000035
:102BA0000000000000000000000000000000000025
:102BB0000000000000000000000000000000000015
:102BC0000000000000000000000000000000000005
:0C2BD00000000000650100004101000051
:04000003000001F503
:00000001FF
